{
  "_format": "hh-sol-artifact-1",
  "contractName": "BlockSnapNFT",
  "sourceName": "smart_contracts/BlockSnapNFT.sol",
  "abi": [
    {
      "inputs": [],
      "stateMutability": "nonpayable",
      "type": "constructor"
    },
    {
      "inputs": [
        {
          "internalType": "address",
          "name": "sender",
          "type": "address"
        },
        {
          "internalType": "uint256",
          "name": "tokenId",
          "type": "uint256"
        },
        {
          "internalType": "address",
          "name": "owner",
          "type": "address"
        }
      ],
      "name": "ERC721IncorrectOwner",
      "type": "error"
    },
    {
      "inputs": [
        {
          "internalType": "address",
          "name": "operator",
          "type": "address"
        },
        {
          "internalType": "uint256",
          "name": "tokenId",
          "type": "uint256"
        }
      ],
      "name": "ERC721InsufficientApproval",
      "type": "error"
    },
    {
      "inputs": [
        {
          "internalType": "address",
          "name": "approver",
          "type": "address"
        }
      ],
      "name": "ERC721InvalidApprover",
      "type": "error"
    },
    {
      "inputs": [
        {
          "internalType": "address",
          "name": "operator",
          "type": "address"
        }
      ],
      "name": "ERC721InvalidOperator",
      "type": "error"
    },
    {
      "inputs": [
        {
          "internalType": "address",
          "name": "owner",
          "type": "address"
        }
      ],
      "name": "ERC721InvalidOwner",
      "type": "error"
    },
    {
      "inputs": [
        {
          "internalType": "address",
          "name": "receiver",
          "type": "address"
        }
      ],
      "name": "ERC721InvalidReceiver",
      "type": "error"
    },
    {
      "inputs": [
        {
          "internalType": "address",
          "name": "sender",
          "type": "address"
        }
      ],
      "name": "ERC721InvalidSender",
      "type": "error"
    },
    {
      "inputs": [
        {
          "internalType": "uint256",
          "name": "tokenId",
          "type": "uint256"
        }
      ],
      "name": "ERC721NonexistentToken",
      "type": "error"
    },
    {
      "inputs": [
        {
          "internalType": "address",
          "name": "owner",
          "type": "address"
        }
      ],
      "name": "OwnableInvalidOwner",
      "type": "error"
    },
    {
      "inputs": [
        {
          "internalType": "address",
          "name": "account",
          "type": "address"
        }
      ],
      "name": "OwnableUnauthorizedAccount",
      "type": "error"
    },
    {
      "anonymous": false,
      "inputs": [
        {
          "indexed": true,
          "internalType": "address",
          "name": "owner",
          "type": "address"
        },
        {
          "indexed": true,
          "internalType": "address",
          "name": "approved",
          "type": "address"
        },
        {
          "indexed": true,
          "internalType": "uint256",
          "name": "tokenId",
          "type": "uint256"
        }
      ],
      "name": "Approval",
      "type": "event"
    },
    {
      "anonymous": false,
      "inputs": [
        {
          "indexed": true,
          "internalType": "address",
          "name": "owner",
          "type": "address"
        },
        {
          "indexed": true,
          "internalType": "address",
          "name": "operator",
          "type": "address"
        },
        {
          "indexed": false,
          "internalType": "bool",
          "name": "approved",
          "type": "bool"
        }
      ],
      "name": "ApprovalForAll",
      "type": "event"
    },
    {
      "anonymous": false,
      "inputs": [
        {
          "indexed": false,
          "internalType": "uint256",
          "name": "_fromTokenId",
          "type": "uint256"
        },
        {
          "indexed": false,
          "internalType": "uint256",
          "name": "_toTokenId",
          "type": "uint256"
        }
      ],
      "name": "BatchMetadataUpdate",
      "type": "event"
    },
    {
      "anonymous": false,
      "inputs": [
        {
          "indexed": false,
          "internalType": "uint256",
          "name": "_tokenId",
          "type": "uint256"
        }
      ],
      "name": "MetadataUpdate",
      "type": "event"
    },
    {
      "anonymous": false,
      "inputs": [
        {
          "indexed": true,
          "internalType": "address",
          "name": "previousOwner",
          "type": "address"
        },
        {
          "indexed": true,
          "internalType": "address",
          "name": "newOwner",
          "type": "address"
        }
      ],
      "name": "OwnershipTransferred",
      "type": "event"
    },
    {
      "anonymous": false,
      "inputs": [
        {
          "indexed": true,
          "internalType": "uint256",
          "name": "tokenId",
          "type": "uint256"
        },
        {
          "indexed": true,
          "internalType": "address",
          "name": "owner",
          "type": "address"
        },
        {
          "indexed": false,
          "internalType": "string",
          "name": "ipfsCID",
          "type": "string"
        },
        {
          "indexed": false,
          "internalType": "string",
          "name": "metadataURI",
          "type": "string"
        }
      ],
      "name": "PhotoMinted",
      "type": "event"
    },
    {
      "anonymous": false,
      "inputs": [
        {
          "indexed": true,
          "internalType": "address",
          "name": "from",
          "type": "address"
        },
        {
          "indexed": true,
          "internalType": "address",
          "name": "to",
          "type": "address"
        },
        {
          "indexed": true,
          "internalType": "uint256",
          "name": "tokenId",
          "type": "uint256"
        }
      ],
      "name": "Transfer",
      "type": "event"
    },
    {
      "anonymous": false,
      "inputs": [
        {
          "indexed": true,
          "internalType": "uint256",
          "name": "sessionId",
          "type": "uint256"
        },
        {
          "indexed": false,
          "internalType": "uint256",
          "name": "sequenceNumber",
          "type": "uint256"
        },
        {
          "indexed": false,
          "internalType": "string",
          "name": "videoCID",
          "type": "string"
        }
      ],
      "name": "VideoChunkAdded",
      "type": "event"
    },
    {
      "anonymous": false,
      "inputs": [
        {
          "indexed": true,
          "internalType": "uint256",
          "name": "sessionId",
          "type": "uint256"
        },
        {
          "indexed": false,
          "internalType": "uint256",
          "name": "totalChunks",
          "type": "uint256"
        }
      ],
      "name": "VideoSessionEnded",
      "type": "event"
    },
    {
      "anonymous": false,
      "inputs": [
        {
          "indexed": true,
          "internalType": "uint256",
          "name": "sessionId",
          "type": "uint256"
        },
        {
          "indexed": true,
          "internalType": "address",
          "name": "owner",
          "type": "address"
        }
      ],
      "name": "VideoSessionStarted",
      "type": "event"
    },
    {
      "inputs": [
        {
          "internalType": "uint256",
          "name": "sessionId",
          "type": "uint256"
        },
        {
          "internalType": "uint256",
          "name": "sequenceNumber",
          "type": "uint256"
        },
        {
          "internalType": "string",
          "name": "videoCID",
          "type": "string"
        },
        {
          "internalType": "string",
          "name": "metadataCID",
          "type": "string"
        },
        {
          "internalType": "uint256",
          "name": "timestamp",
          "type": "uint256"
        }
      ],
      "name": "addVideoChunk",
      "outputs": [],
      "stateMutability": "nonpayable",
      "type": "function"
    },
    {
      "inputs": [
        {
          "internalType": "address",
          "name": "to",
          "type": "address"
        },
        {
          "internalType": "uint256",
          "name": "tokenId",
          "type": "uint256"
        }
      ],
      "name": "approve",
      "outputs": [],
      "stateMutability": "nonpayable",
      "type": "function"
    },
    {
      "inputs": [
        {
          "internalType": "address",
          "name": "owner",
          "type": "address"
        }
      ],
      "name": "balanceOf",
      "outputs": [
        {
          "internalType": "uint256",
          "name": "",
          "type": "uint256"
        }
      ],
      "stateMutability": "view",
      "type": "function"
    },
    {
      "inputs": [
        {
          "internalType": "uint256",
          "name": "tokenId",
          "type": "uint256"
        }
      ],
      "name": "burn",
      "outputs": [],
      "stateMutability": "nonpayable",
      "type": "function"
    },
    {
      "inputs": [
        {
          "internalType": "uint256",
          "name": "sessionId",
          "type": "uint256"
        }
      ],
      "name": "endVideoSession",
      "outputs": [],
      "stateMutability": "nonpayable",
      "type": "function"
    },
    {
      "inputs": [
        {
          "internalType": "uint256",
          "name": "tokenId",
          "type": "uint256"
        }
      ],
      "name": "getApproved",
      "outputs": [
        {
          "internalType": "address",
          "name": "",
          "type": "address"
        }
      ],
      "stateMutability": "view",
      "type": "function"
    },
    {
      "inputs": [
        {
          "internalType": "uint256",
          "name": "tokenId",
          "type": "uint256"
        }
      ],
      "name": "getImageCID",
      "outputs": [
        {
          "internalType": "string",
          "name": "",
          "type": "string"
        }
      ],
      "stateMutability": "view",
      "type": "function"
    },
    {
      "inputs": [],
      "name": "getNextTokenId",
      "outputs": [
        {
          "internalType": "uint256",
          "name": "",
          "type": "uint256"
        }
      ],
      "stateMutability": "view",
      "type": "function"
    },
    {
      "inputs": [
        {
          "internalType": "uint256",
          "name": "sessionId",
          "type": "uint256"
        }
      ],
      "name": "getSessionChunks",
      "outputs": [
        {
          "components": [
            {
              "internalType": "uint256",
              "name": "sessionId",
              "type": "uint256"
            },
            {
              "internalType": "uint256",
              "name": "sequenceNumber",
              "type": "uint256"
            },
            {
              "internalType": "string",
              "name": "videoCID",
              "type": "string"
            },
            {
              "internalType": "string",
              "name": "metadataCID",
              "type": "string"
            },
            {
              "internalType": "uint256",
              "name": "timestamp",
              "type": "uint256"
            }
          ],
          "internalType": "struct BlockSnapNFT.VideoChunk[]",
          "name": "",
          "type": "tuple[]"
        }
      ],
      "stateMutability": "view",
      "type": "function"
    },
    {
      "inputs": [
        {
          "internalType": "address",
          "name": "owner",
          "type": "address"
        },
        {
          "internalType": "address",
          "name": "operator",
          "type": "address"
        }
      ],
      "name": "isApprovedForAll",
      "outputs": [
        {
          "internalType": "bool",
          "name": "",
          "type": "bool"
        }
      ],
      "stateMutability": "view",
      "type": "function"
    },
    {
      "inputs": [
        {
          "internalType": "uint256",
          "name": "sessionId",
          "type": "uint256"
        }
      ],
      "name": "isSessionActive",
      "outputs": [
        {
          "internalType": "bool",
          "name": "",
          "type": "bool"
        }
      ],
      "stateMutability": "view",
      "type": "function"
    },
    {
      "inputs": [
        {
          "internalType": "address",
          "name": "to",
          "type": "address"
        },
        {
          "internalType": "string",
          "name": "imageCID",
          "type": "string"
        },
        {
          "internalType": "string",
          "name": "metadataURI",
          "type": "string"
        }
      ],
      "name": "mintPhoto",
      "outputs": [
        {
          "internalType": "uint256",
          "name": "",
          "type": "uint256"
        }
      ],
      "stateMutability": "nonpayable",
      "type": "function"
    },
    {
      "inputs": [],
      "name": "name",
      "outputs": [
        {
          "internalType": "string",
          "name": "",
          "type": "string"
        }
      ],
      "stateMutability": "view",
      "type": "function"
    },
    {
      "inputs": [],
      "name": "owner",
      "outputs": [
        {
          "internalType": "address",
          "name": "",
          "type": "address"
        }
      ],
      "stateMutability": "view",
      "type": "function"
    },
    {
      "inputs": [
        {
          "internalType": "uint256",
          "name": "tokenId",
          "type": "uint256"
        }
      ],
      "name": "ownerOf",
      "outputs": [
        {
          "internalType": "address",
          "name": "",
          "type": "address"
        }
      ],
      "stateMutability": "view",
      "type": "function"
    },
    {
      "inputs": [],
      "name": "renounceOwnership",
      "outputs": [],
      "stateMutability": "nonpayable",
      "type": "function"
    },
    {
      "inputs": [
        {
          "internalType": "address",
          "name": "from",
          "type": "address"
        },
        {
          "internalType": "address",
          "name": "to",
          "type": "address"
        },
        {
          "internalType": "uint256",
          "name": "tokenId",
          "type": "uint256"
        }
      ],
      "name": "safeTransferFrom",
      "outputs": [],
      "stateMutability": "nonpayable",
      "type": "function"
    },
    {
      "inputs": [
        {
          "internalType": "address",
          "name": "from",
          "type": "address"
        },
        {
          "internalType": "address",
          "name": "to",
          "type": "address"
        },
        {
          "internalType": "uint256",
          "name": "tokenId",
          "type": "uint256"
        },
        {
          "internalType": "bytes",
          "name": "data",
          "type": "bytes"
        }
      ],
      "name": "safeTransferFrom",
      "outputs": [],
      "stateMutability": "nonpayable",
      "type": "function"
    },
    {
      "inputs": [
        {
          "internalType": "address",
          "name": "operator",
          "type": "address"
        },
        {
          "internalType": "bool",
          "name": "approved",
          "type": "bool"
        }
      ],
      "name": "setApprovalForAll",
      "outputs": [],
      "stateMutability": "nonpayable",
      "type": "function"
    },
    {
      "inputs": [],
      "name": "startVideoSession",
      "outputs": [
        {
          "internalType": "uint256",
          "name": "",
          "type": "uint256"
        }
      ],
      "stateMutability": "nonpayable",
      "type": "function"
    },
    {
      "inputs": [
        {
          "internalType": "bytes4",
          "name": "interfaceId",
          "type": "bytes4"
        }
      ],
      "name": "supportsInterface",
      "outputs": [
        {
          "internalType": "bool",
          "name": "",
          "type": "bool"
        }
      ],
      "stateMutability": "view",
      "type": "function"
    },
    {
      "inputs": [],
      "name": "symbol",
      "outputs": [
        {
          "internalType": "string",
          "name": "",
          "type": "string"
        }
      ],
      "stateMutability": "view",
      "type": "function"
    },
    {
      "inputs": [
        {
          "internalType": "uint256",
          "name": "tokenId",
          "type": "uint256"
        }
      ],
      "name": "tokenURI",
      "outputs": [
        {
          "internalType": "string",
          "name": "",
          "type": "string"
        }
      ],
      "stateMutability": "view",
      "type": "function"
    },
    {
      "inputs": [
        {
          "internalType": "address",
          "name": "from",
          "type": "address"
        },
        {
          "internalType": "address",
          "name": "to",
          "type": "address"
        },
        {
          "internalType": "uint256",
          "name": "tokenId",
          "type": "uint256"
        }
      ],
      "name": "transferFrom",
      "outputs": [],
      "stateMutability": "nonpayable",
      "type": "function"
    },
    {
      "inputs": [
        {
          "internalType": "address",
          "name": "newOwner",
          "type": "address"
        }
      ],
      "name": "transferOwnership",
      "outputs": [],
      "stateMutability": "nonpayable",
      "type": "function"
    },
    {
      "inputs": [
        {
          "internalType": "string",
          "name": "imageCID",
          "type": "string"
        }
      ],
      "name": "verifyPhoto",
      "outputs": [
        {
          "internalType": "bool",
          "name": "",
          "type": "bool"
        },
        {
          "internalType": "address",
          "name": "",
          "type": "address"
        }
      ],
      "stateMutability": "view",
      "type": "function"
    }
  ],
  "bytecode": "0x60806040523480156200001157600080fd5b5033604051806040016040528060098152602001680426c6f636b536e61760bc1b81525060405180604001604052806005815260200164042534e41560dc1b8152508160009081620000649190620001ae565b506001620000738282620001ae565b5050506001600160a01b038116620000a557604051631e4fbdf760e01b81526000600482015260240160405180910390fd5b620000b081620000b7565b506200027a565b600780546001600160a01b038381166001600160a01b0319831681179093556040519116919082907f8be0079c531659141344cd1fd0a4f28419497f9722a3daafe3b4186f6b6457e090600090a35050565b634e487b7160e01b600052604160045260246000fd5b600181811c908216806200013457607f821691505b6020821081036200015557634e487b7160e01b600052602260045260246000fd5b50919050565b601f821115620001a957600081815260208120601f850160051c81016020861015620001845750805b601f850160051c820191505b81811015620001a55782815560010162000190565b5050505b505050565b81516001600160401b03811115620001ca57620001ca62000109565b620001e281620001db84546200011f565b846200015b565b602080601f8311600181146200021a5760008415620002015750858301515b600019600386901b1c1916600185901b178555620001a5565b600085815260208120601f198616915b828110156200024b578886015182559484019460019091019084016200022a565b50858210156200026a5787850151600019600388901b60f8161c191681555b5050505050600190811b01905550565b611ff3806200028a6000396000f3fe608060405234801561001057600080fd5b506004361061018e5760003560e01c806370a08231116100de578063b88d4fde11610097578063d1aef73d11610071578063d1aef73d1461036e578063e1ca8b47146103a0578063e985e9c5146103a8578063f2fde38b146103bb57600080fd5b8063b88d4fde14610340578063c87b56dd14610353578063caa0f92a1461036657600080fd5b806370a08231146102e6578063715018a6146102f95780638da5cb5b1461030157806395d89b4114610312578063a15ab3ee1461031a578063a22cb4651461032d57600080fd5b80633e87d3ba1161014b578063563f4de511610125578063563f4de51461027f5780636352211e146102a0578063674b31d6146102b35780636b5ac1bf146102d357600080fd5b80633e87d3ba1461023657806342842e0e1461025957806342966c681461026c57600080fd5b806301ffc9a71461019357806306fdde03146101bb578063081812fc146101d0578063095ea7b3146101fb57806323b872dd14610210578063333efdb414610223575b600080fd5b6101a66101a1366004611849565b6103ce565b60405190151581526020015b60405180910390f35b6101c36103f9565b6040516101b291906118b6565b6101e36101de3660046118c9565b61048b565b6040516001600160a01b0390911681526020016101b2565b61020e6102093660046118fe565b6104b4565b005b61020e61021e366004611928565b6104c3565b61020e610231366004611a10565b610553565b6101a66102443660046118c9565b6000908152600d602052604090205460ff1690565b61020e610267366004611928565b610702565b61020e61027a3660046118c9565b610722565b61029261028d366004611a8f565b610780565b6040519081526020016101b2565b6101e36102ae3660046118c9565b6108b3565b6102c66102c13660046118c9565b6108be565b6040516101b29190611b03565b61020e6102e13660046118c9565b610a9f565b6102926102f4366004611baa565b610b82565b61020e610bca565b6007546001600160a01b03166101e3565b6101c3610bde565b6101c36103283660046118c9565b610bed565b61020e61033b366004611bc5565b610cf9565b61020e61034e366004611c01565b610d04565b6101c36103613660046118c9565b610d1c565b600854610292565b61038161037c366004611c7d565b610e2d565b6040805192151583526001600160a01b039091166020830152016101b2565b610292610ea5565b6101a66103b6366004611cb2565b610f23565b61020e6103c9366004611baa565b610f51565b60006001600160e01b03198216632483248360e11b14806103f357506103f382610f8c565b92915050565b60606000805461040890611ce5565b80601f016020809104026020016040519081016040528092919081815260200182805461043490611ce5565b80156104815780601f1061045657610100808354040283529160200191610481565b820191906000526020600020905b81548152906001019060200180831161046457829003601f168201915b5050505050905090565b600061049682610fdc565b506000828152600460205260409020546001600160a01b03166103f3565b6104bf828233611015565b5050565b6001600160a01b0382166104f257604051633250574960e11b8152600060048201526024015b60405180910390fd5b60006104ff838333611022565b9050836001600160a01b0316816001600160a01b03161461054d576040516364283d7b60e01b81526001600160a01b03808616600483015260248201849052821660448201526064016104e9565b50505050565b6000858152600d602052604090205460ff166105a95760405162461bcd60e51b815260206004820152601560248201527453657373696f6e206973206e6f742061637469766560581b60448201526064016104e9565b6000858152600b60205260409020546001600160a01b031633146105df5760405162461bcd60e51b81526004016104e990611d1f565b60008351116106305760405162461bcd60e51b815260206004820152601960248201527f566964656f204349442063616e6e6f7420626520656d7074790000000000000060448201526064016104e9565b6040805160a0810182528681526020808201878152828401878152606084018790526080840186905260008a8152600c8452948520805460018181018355918752939095208451600590940201928355905193820193909355915190918291600282019061069e9082611d90565b50606082015160038201906106b39082611d90565b50608082015181600401555050857f288ac1dafbdb836bc30d96130864a73b01f5aaf88d406b3ec4337c2114901c6486866040516106f2929190611e50565b60405180910390a2505050505050565b61071d83838360405180602001604052806000815250610d04565b505050565b3361072c826108b3565b6001600160a01b0316146107745760405162461bcd60e51b815260206004820152600f60248201526e2737ba103a37b5b2b71037bbb732b960891b60448201526064016104e9565b61077d8161111b565b50565b6000808351116107d25760405162461bcd60e51b815260206004820152601960248201527f496d616765204349442063616e6e6f7420626520656d7074790000000000000060448201526064016104e9565b60008251116108235760405162461bcd60e51b815260206004820152601c60248201527f4d65746164617461205552492063616e6e6f7420626520656d7074790000000060448201526064016104e9565b600880546000918261083483611e69565b9190505590506108448582611156565b61084e8184611170565b6000818152600a602052604090206108668582611d90565b50846001600160a01b0316817f32101ae6eac133c618a5a7805b4bd81a687b4395a390142c8c28c63951c9aa4f86866040516108a3929190611e90565b60405180910390a3949350505050565b60006103f382610fdc565b6000818152600b60205260409020546060906001600160a01b031633146108f75760405162461bcd60e51b81526004016104e990611d1f565b6000828152600c6020908152604080832080548251818502810185019093528083529193909284015b82821015610a9457838290600052602060002090600502016040518060a0016040529081600082015481526020016001820154815260200160028201805461096790611ce5565b80601f016020809104026020016040519081016040528092919081815260200182805461099390611ce5565b80156109e05780601f106109b5576101008083540402835291602001916109e0565b820191906000526020600020905b8154815290600101906020018083116109c357829003601f168201915b505050505081526020016003820180546109f990611ce5565b80601f0160208091040260200160405190810160405280929190818152602001828054610a2590611ce5565b8015610a725780601f10610a4757610100808354040283529160200191610a72565b820191906000526020600020905b815481529060010190602001808311610a5557829003601f168201915b5050505050815260200160048201548152505081526020019060010190610920565b505050509050919050565b6000818152600d602052604090205460ff16610af55760405162461bcd60e51b815260206004820152601560248201527453657373696f6e206973206e6f742061637469766560581b60448201526064016104e9565b6000818152600b60205260409020546001600160a01b03163314610b2b5760405162461bcd60e51b81526004016104e990611d1f565b6000818152600d60209081526040808320805460ff19169055600c82529182902054915191825282917f0113d2922c0508c47b4abf74f4b37a7223e7296ce5dbab09fb5b18b5275780b9910160405180910390a250565b60006001600160a01b038216610bae576040516322718ad960e21b8152600060048201526024016104e9565b506001600160a01b031660009081526003602052604090205490565b610bd26111c0565b610bdc60006111ed565b565b60606001805461040890611ce5565b606060085482108015610c1857506000828152600a602052604081208054610c1490611ce5565b9050115b610c5b5760405162461bcd60e51b8152602060048201526014602482015273151bdad95b88191bd95cc81b9bdd08195e1a5cdd60621b60448201526064016104e9565b6000828152600a602052604090208054610c7490611ce5565b80601f0160208091040260200160405190810160405280929190818152602001828054610ca090611ce5565b8015610ced5780601f10610cc257610100808354040283529160200191610ced565b820191906000526020600020905b815481529060010190602001808311610cd057829003601f168201915b50505050509050919050565b6104bf33838361123f565b610d0f8484846104c3565b61054d33858585856112de565b6060610d2782610fdc565b5060008281526006602052604081208054610d4190611ce5565b80601f0160208091040260200160405190810160405280929190818152602001828054610d6d90611ce5565b8015610dba5780601f10610d8f57610100808354040283529160200191610dba565b820191906000526020600020905b815481529060010190602001808311610d9d57829003601f168201915b505050505090506000610dd860408051602081019091526000815290565b90508051600003610dea575092915050565b815115610e1c578082604051602001610e04929190611ebe565b60405160208183030381529060405292505050919050565b610e2584611409565b949350505050565b60008060005b600854811015610e99578380519060200120600a6000838152602001908152602001600020604051610e659190611eed565b604051809103902003610e87576001610e7d826108b3565b9250925050915091565b80610e9181611e69565b915050610e33565b50600093849350915050565b6009805460009182919082610eb983611e69565b909155506000818152600b6020908152604080832080546001600160a01b03191633908117909155600d909252808320805460ff19166001179055519293509183917f9bdb9aedcae8228748c0d2002f4384a1892f38949ac3be3952ffe13c84a1e44791a3919050565b6001600160a01b03918216600090815260056020908152604080832093909416825291909152205460ff1690565b610f596111c0565b6001600160a01b038116610f8357604051631e4fbdf760e01b8152600060048201526024016104e9565b61077d816111ed565b60006001600160e01b031982166380ac58cd60e01b1480610fbd57506001600160e01b03198216635b5e139f60e01b145b806103f357506301ffc9a760e01b6001600160e01b03198316146103f3565b6000818152600260205260408120546001600160a01b0316806103f357604051637e27328960e01b8152600481018490526024016104e9565b61071d838383600161147e565b6000828152600260205260408120546001600160a01b039081169083161561104f5761104f818486611584565b6001600160a01b0381161561108d5761106c60008560008061147e565b6001600160a01b038116600090815260036020526040902080546000190190555b6001600160a01b038516156110bc576001600160a01b0385166000908152600360205260409020805460010190555b60008481526002602052604080822080546001600160a01b0319166001600160a01b0389811691821790925591518793918516917fddf252ad1be2c89b69c2b068fc378daa952ba7f163c4a11628f55a4df523b3ef91a4949350505050565b600061112a6000836000611022565b90506001600160a01b0381166104bf57604051637e27328960e01b8152600481018390526024016104e9565b6104bf8282604051806020016040528060008152506115e8565b60008281526006602052604090206111888282611d90565b506040518281527ff8e1a15aba9398e019f0b49df1a4fde98ee17ae345cb5f6b5e2c27f5033e8ce79060200160405180910390a15050565b6007546001600160a01b03163314610bdc5760405163118cdaa760e01b81523360048201526024016104e9565b600780546001600160a01b038381166001600160a01b0319831681179093556040519116919082907f8be0079c531659141344cd1fd0a4f28419497f9722a3daafe3b4186f6b6457e090600090a35050565b6001600160a01b03821661127157604051630b61174360e31b81526001600160a01b03831660048201526024016104e9565b6001600160a01b03838116600081815260056020908152604080832094871680845294825291829020805460ff191686151590811790915591519182527f17307eab39ab6107e8899845ad3d59bd9653f200f220920489ca2b5937696c31910160405180910390a3505050565b6001600160a01b0383163b1561140257604051630a85bd0160e11b81526001600160a01b0384169063150b7a0290611320908890889087908790600401611f63565b6020604051808303816000875af192505050801561135b575060408051601f3d908101601f1916820190925261135891810190611fa0565b60015b6113c4573d808015611389576040519150601f19603f3d011682016040523d82523d6000602084013e61138e565b606091505b5080516000036113bc57604051633250574960e11b81526001600160a01b03851660048201526024016104e9565b805181602001fd5b6001600160e01b03198116630a85bd0160e11b1461140057604051633250574960e11b81526001600160a01b03851660048201526024016104e9565b505b5050505050565b606061141482610fdc565b50600061142c60408051602081019091526000815290565b9050600081511161144c5760405180602001604052806000815250611477565b8061145684611600565b604051602001611467929190611ebe565b6040516020818303038152906040525b9392505050565b808061149257506001600160a01b03821615155b156115545760006114a284610fdc565b90506001600160a01b038316158015906114ce5750826001600160a01b0316816001600160a01b031614155b80156114e157506114df8184610f23565b155b1561150a5760405163a9fbf51f60e01b81526001600160a01b03841660048201526024016104e9565b81156115525783856001600160a01b0316826001600160a01b03167f8c5be1e5ebec7d5bd14f71427d1e84f3dd0314c0f7b2291e5b200ac8c7c3b92560405160405180910390a45b505b5050600090815260046020526040902080546001600160a01b0319166001600160a01b0392909216919091179055565b61158f838383611693565b61071d576001600160a01b0383166115bd57604051637e27328960e01b8152600481018290526024016104e9565b60405163177e802f60e01b81526001600160a01b0383166004820152602481018290526044016104e9565b6115f283836116f6565b61071d3360008585856112de565b6060600061160d8361175b565b600101905060008167ffffffffffffffff81111561162d5761162d611964565b6040519080825280601f01601f191660200182016040528015611657576020820181803683370190505b5090508181016020015b600019016f181899199a1a9b1b9c1cb0b131b232b360811b600a86061a8153600a850494508461166157509392505050565b60006001600160a01b03831615801590610e255750826001600160a01b0316846001600160a01b031614806116cd57506116cd8484610f23565b80610e255750506000908152600460205260409020546001600160a01b03908116911614919050565b6001600160a01b03821661172057604051633250574960e11b8152600060048201526024016104e9565b600061172e83836000611022565b90506001600160a01b0381161561071d576040516339e3563760e11b8152600060048201526024016104e9565b60008072184f03e93ff9f4daa797ed6e38ed64bf6a1f0160401b831061179a5772184f03e93ff9f4daa797ed6e38ed64bf6a1f0160401b830492506040015b6d04ee2d6d415b85acef810000000083106117c6576d04ee2d6d415b85acef8100000000830492506020015b662386f26fc1000083106117e457662386f26fc10000830492506010015b6305f5e10083106117fc576305f5e100830492506008015b612710831061181057612710830492506004015b60648310611822576064830492506002015b600a83106103f35760010192915050565b6001600160e01b03198116811461077d57600080fd5b60006020828403121561185b57600080fd5b813561147781611833565b60005b83811015611881578181015183820152602001611869565b50506000910152565b600081518084526118a2816020860160208601611866565b601f01601f19169290920160200192915050565b602081526000611477602083018461188a565b6000602082840312156118db57600080fd5b5035919050565b80356001600160a01b03811681146118f957600080fd5b919050565b6000806040838503121561191157600080fd5b61191a836118e2565b946020939093013593505050565b60008060006060848603121561193d57600080fd5b611946846118e2565b9250611954602085016118e2565b9150604084013590509250925092565b634e487b7160e01b600052604160045260246000fd5b600067ffffffffffffffff8084111561199557611995611964565b604051601f8501601f19908116603f011681019082821181831017156119bd576119bd611964565b816040528093508581528686860111156119d657600080fd5b858560208301376000602087830101525050509392505050565b600082601f830112611a0157600080fd5b6114778383356020850161197a565b600080600080600060a08688031215611a2857600080fd5b8535945060208601359350604086013567ffffffffffffffff80821115611a4e57600080fd5b611a5a89838a016119f0565b94506060880135915080821115611a7057600080fd5b50611a7d888289016119f0565b95989497509295608001359392505050565b600080600060608486031215611aa457600080fd5b611aad846118e2565b9250602084013567ffffffffffffffff80821115611aca57600080fd5b611ad6878388016119f0565b93506040860135915080821115611aec57600080fd5b50611af9868287016119f0565b9150509250925092565b60006020808301818452808551808352604092508286019150828160051b87010184880160005b83811015611b9c57603f19898403018552815160a0815185528882015189860152878201518189870152611b608287018261188a565b91505060608083015186830382880152611b7a838261188a565b6080948501519790940196909652505094870194925090860190600101611b2a565b509098975050505050505050565b600060208284031215611bbc57600080fd5b611477826118e2565b60008060408385031215611bd857600080fd5b611be1836118e2565b915060208301358015158114611bf657600080fd5b809150509250929050565b60008060008060808587031215611c1757600080fd5b611c20856118e2565b9350611c2e602086016118e2565b925060408501359150606085013567ffffffffffffffff811115611c5157600080fd5b8501601f81018713611c6257600080fd5b611c718782356020840161197a565b91505092959194509250565b600060208284031215611c8f57600080fd5b813567ffffffffffffffff811115611ca657600080fd5b610e25848285016119f0565b60008060408385031215611cc557600080fd5b611cce836118e2565b9150611cdc602084016118e2565b90509250929050565b600181811c90821680611cf957607f821691505b602082108103611d1957634e487b7160e01b600052602260045260246000fd5b50919050565b6020808252601190820152702737ba1039b2b9b9b4b7b71037bbb732b960791b604082015260600190565b601f82111561071d57600081815260208120601f850160051c81016020861015611d715750805b601f850160051c820191505b8181101561140057828155600101611d7d565b815167ffffffffffffffff811115611daa57611daa611964565b611dbe81611db88454611ce5565b84611d4a565b602080601f831160018114611df35760008415611ddb5750858301515b600019600386901b1c1916600185901b178555611400565b600085815260208120601f198616915b82811015611e2257888601518255948401946001909101908401611e03565b5085821015611e405787850151600019600388901b60f8161c191681555b5050505050600190811b01905550565b828152604060208201526000610e25604083018461188a565b600060018201611e8957634e487b7160e01b600052601160045260246000fd5b5060010190565b604081526000611ea3604083018561188a565b8281036020840152611eb5818561188a565b95945050505050565b60008351611ed0818460208801611866565b835190830190611ee4818360208801611866565b01949350505050565b6000808354611efb81611ce5565b60018281168015611f135760018114611f2857611f57565b60ff1984168752821515830287019450611f57565b8760005260208060002060005b85811015611f4e5781548a820152908401908201611f35565b50505082870194505b50929695505050505050565b6001600160a01b0385811682528416602082015260408101839052608060608201819052600090611f969083018461188a565b9695505050505050565b600060208284031215611fb257600080fd5b81516114778161183356fea264697066735822122058ccd33ea4c3c88a079b37a8293d27d632e81068ef60668cac27138fd1e28a4b64736f6c63430008140033",
  "linkReferences": {},
  "deployedLinkReferences": {}
}